:040000008A11FD2F35
:100A3A0083120313081125088A11CA268A11831200
:100A4A0003130815080083120313081100308A11D2
:100A5A0058268A1101308A1158268A1183120313E3
:100A6A000815080083120313A001A1010130A00791
:100A7A000318A10A0030A1070F302102FF30031921
:100A8A002002031C492D4A2D3B2D08008312031313
:100A9A0088100811881108128812081388138A11FD
:100AAA0037258A118A1137258A118A1137258A1121
:100ABA008A1137258A1103308A1158268A11033080
:100ACA008A1158268A1103308A1158268A1102304F
:100ADA008A1158268A1102308A1158268A1108303A
:100AEA008A1158268A1100308A1158268A110C3028
:100AFA008A1158268A1100308A1158268A11013023
:100B0A008A1158268A1100308A1158268A1106300D
:100B1A008A1158268A1183120313081508008312B2
:100B2A000313A601A31F9A2D9B2DA22DA209A30987
:100B3A00A20A0319A30AA601A60AA11FA52DA62D7A
:100B4A00AB2DA009A109A00A0319A10A20082104B2
:100B5A000319B02DB12DE02DA501A50ABF2D013035
:100B6A000310A00DA10DFF3E031DB52D0130A400F9
:100B7A002408A507A11FC22DC32DB42D21082302C5
:100B8A00031DC92D20082202031CCC2DCD2DD32DE7
:100B9A002008A2022108031CA303A30201300310A8
:100BAA00A10CA00CFF3E031DD42D0130A502031D8C
:100BBA00DF2DE02DC32D26080319E42DE52DEA2D9E
:100BCA00A209A309A20A0319A30A2308A100220859
:100BDA00A000080083120313AD01A81FF52DF62DFE
:100BEA00FD2DA709A809A70A0319A80AAD01AD0A8C
:100BFA00AA1F002E012E0A2EA909AA09A90A031959
:100C0A00AA0A0130AB002B08AD06AE01AF012708D6
:100C1A0028040319112E122E492EAC01AC0A202EDB
:100C2A0001300310A70DA80DFF3E031D162E01303B
:100C3A00AB002B08AC07A81F232E242E152E01303B
:100C4A000310AE0DAF0DFF3E031D252E28082A0204
:100C5A00031D312E27082902031C342E352E3C2E63
:100C6A002708A9022808031CAA03AA022E14013085
:100C7A000310A80CA70CFF3E031D3D2E0130AC0249
:100C8A00031D482E492E242E2D0803194D2E4E2EB3
:100C9A00532EAE09AF09AE0A0319AF0A2F08A800EE
:100CAA002E08A700080083120313A4002408A20038
:100CBA0003300310A20CFF3E031D5E2E22080139E9
:100CCA00A300A30CA30C080823067F392306880077
:100CDA002408A20002300310A20CFF3E031D702E4E
:100CEA0022080139A300A30EA30DA30D08082306A9
:100CFA00BF39230688002408A2000310220C0139F8
:100D0A00A300A30EA30D08082306DF3923068800D3
:100D1A0024080139A200A20E08082206EF39220689
:100D2A0088008A1137258A118A1137258A118A1172
:100D3A0037258A118A1137258A118A1137258A118E
:100D4A008312031388158A1137258A118A113725C8
:100D5A008A118A1137258A118A1137258A118A112F
:100D6A0037258A118312031388118A1137258A11AC
:100D7A008A1137258A118A1137258A118A1137254E
:100D8A008A118A1137258A11080083120313A400D5
:100D9A002408A20007300310A20CFF3E031DD02E28
:100DAA0022080139A300A30CA30C080823067F39E3
:100DBA00230688002408A20006300310A20CFF3E76
:100DCA00031DE22E22080139A300A30EA30DA30DD1
:100DDA0008082306BF39230688002408A200053024
:100DEA000310A20CFF3E031DF52E22080139A300B1
:100DFA00A30EA30D08082306DF392306880024085A
:100E0A00A20004300310A20CFF3E031D072F220884
:100E1A000139A300A30E08082306EF392306880028
:100E2A00881588118A1137258A1183120313240819
:100E3A00A20003300310A20CFF3E031D1F2F22083D
:100E4A000139A300A30CA30C080823067F39230643
:100E5A0088002408A20002300310A20CFF3E031DE2
:100E6A00312F22080139A300A30EA30DA30D0808F0
:100E7A002306BF39230688002408A2000310220C87
:100E8A000139A300A30EA30D08082306DF392306A0
:100E9A00880024080139A200A20E08082206EF39A8
:100EAA0022068800881588118A1137258A110800B8
:100EBA008316031388018A114B258A118A11282562
:100ECA008A11FF3083120313370271300319360275
:100EDA00031C702F712FE72F0130B8070318B90AC6
:100EEA000030B9076430A7000030A8003908AA000A
:100EFA003808A9008A11EF258A11831203132808DA
:100F0A00B3002708B2000A30A7000030A800390849
:100F1A00A3003808A2006430A0000030A1008A11A2
:100F2A0094258A11831203132108AA002008A90014
:100F3A008A11EF258A11831203132808B50027089E
:100F4A00B4000A30A0000030A1003908A300380814
:100F5A00A2008A1194258A11831203132108B10071
:100F6A002008B000B601B7018030A5000030A60005
:100F7A008A111D258A11831203133208303E8A1101
:100F8A00CA268A11813083120313A5000030A600F5
:100F9A008A111D258A11831203133408303E8A11DF
:100FAA00CA268A11823083120313A5000030A600D4
:100FBA008A111D258A11831203133008303E8A11C3
:100FCA00CA268A11E730831203133806033003193D
:100FDA003906031DF12FF22FF42FB801B9010130A0
:100FEA00B6070318B70A0030B707662F8A11002818
:060FFA0083018A115D2F46
:08400000FF3FFF3FFF3FFF3FC0
:02400E00BA3FB7
:00000001FF
