:040000008A110D282C
:10000800FE00030E83120313A4000A08A5008A1138
:1000180018288A110F2883120313A001A101A20135
:10002800A30183018A1157280B1D1B281C284E2861
:100038000130A007003003180130A1070030031871
:100048000130A207003003180130A3072308031D5D
:100058003C282208031D3C280F302102031D3828A4
:10006800A0302002031D3828031C3B283C284D28BB
:10007800003083120313A3000030A2000030A10057
:100088000030A000871949284A284C2887154D2890
:1000980087110B118312031325088A00240E83008D
:1000A800FE0E7E0E0900831603138701811281114B
:0E00B800F83081058B178B1660288A110D28F1
:08400000FF3FFF3FFF3FFF3FC0
:02400E003A3F37
:00000001FF
