:100000008A11FD2F00308A000408840A8207003418
:100010005034413455344C34413420346534203428
:0A00200052344134463441340034B8
:100B320083120313081125088A11CF268A11831202
:100B420003130815080083120313081100308A11D9
:100B52005D268A1101308A115D268A1183120313E0
:100B62000815080083120313A001A1010130A00798
:100B72000318A10A0030A10700302102FF30031937
:100B82002002031CC52DC62DB72D080083120313A6
:100B920088100811881108128812081388138A1104
:100BA200B3258A118A11B3258A118A11B3258A11B4
:100BB2008A11B3258A1103308A115D268A11033006
:100BC2008A115D268A1103308A115D268A1102304C
:100BD2008A115D268A1102308A115D268A11083037
:100BE2008A115D268A1100308A115D268A110C3025
:100BF2008A115D268A1100308A115D268A11013020
:100C02008A115D268A1100308A115D268A1106300A
:100C12008A115D268A1183120313081508008316B0
:100C220003138501860187018A11C7258A118A115A
:100C3200A4258A11033083120313A7000030A800F1
:100C42000130A9008A1162278A1183120313071245
:100C5200AE01AF01013083120313AE070318AF0ACE
:100C62000030AF072F08803AFF00BF307F02031D1C
:100C72003C2EFF302E02031C3F2E402E2B2E8312C1
:100C820003130716AE01AF01013083120313AE073F
:100C92000318AF0A0030AF072F08803AFF00BF30B9
:100CA2007F02031D562EFF302E02031C592E5A2E90
:100CB200452E262E8A11002883120313A40024082D
:100CC200A20003300310A20CFF3E031D632E220874
:100CD2000139A300A30CA30C080823067F392306BD
:100CE20088002408A20002300310A20CFF3E031D5C
:100CF200752E22080139A300A30EA30DA30D080827
:100D02002306BF39230688002408A2000310220C00
:100D12000139A300A30EA30D08082306DF39230619
:100D2200880024080139A200A20E08082206EF3921
:100D3200220688008A11B3258A118A11B3258A11E5
:100D42008A11B3258A118A11B3258A118A11B32512
:100D52008A118312031388158A11B3258A118A1105
:100D6200B3258A118A11B3258A118A11B3258A11F2
:100D72008A11B3258A118312031388118A11B325AC
:100D82008A118A11B3258A118A11B3258A118A110F
:100D9200B3258A118A11B3258A110800831203131D
:100DA200A4002408A20007300310A20CFF3E031D7A
:100DB200D52E22080139A300A30CA30C0808230690
:100DC2007F39230688002408A20006300310A20CF3
:100DD200FF3E031DE72E22080139A300A30EA30D37
:100DE200A30D08082306BF39230688002408A200A1
:100DF20005300310A20CFF3E031DFA2E2208013912
:100E0200A300A30EA30D08082306DF3923068800DA
:100E12002408A20004300310A20CFF3E031D0C2F75
:100E220022080139A300A30E08082306EF3923067E
:100E32008800881588118A11B3258A118312031339
:100E42002408A20003300310A20CFF3E031D242F2E
:100E520022080139A300A30CA30C080823067F393A
:100E6200230688002408A20002300310A20CFF3ED1
:100E7200031D362F22080139A300A30EA30DA30DD3
:100E820008082306BF39230688002408A20003109D
:100E9200220C0139A300A30EA30D08082306DF3993
:100EA2002306880024080139A200A20E080822069F
:100EB200EF3922068800881588118A11B3258A1114
:100EC200080083120313AB012908AD00702F013013
:100ED200AA002A08AD070130AA002A08AB072D088C
:100EE20084008A1102208A11003A031D792F7A2F79
:100EF200682F2808803AFF0080307F02031D832F6D
:100F020001302702031C862F872FA12F8312031380
:100F12002808803AFF0080307F02031D922F113093
:100F220027020318952F962FA12F83120313270848
:100F32007F3EA70028080318013E003EA800C92FE3
:100F4200831203132808803AFF0080307F02031DBA
:100F5200AC2F11302702031CAF2FB02FFC2F8312AE
:100F620003132808803AFF0080307F02031DBB2F45
:100F7200213027020318BE2FBF2FFC2F8312031329
:100F82002708AF3EA70028080318013E003EA8002C
:100F9200AC01EC2F2808A6002708A5008A11992584
:100FA2008A11013083120313A7070318A80A00301D
:100FB200A8070130AA002A08AC07290884008A1170
:100FC20002208A118A11CF268A110130831203135B
:100FD200AA002A08A907290884008A1102208A1176
:100FE200003A0319F52FF62FFC2F11302C02031CA7
:0E0FF200FB2FFC2FCB2F080083018A11102E3D
:08400000FF3FFF3FFF3FFF3FC0
:02400E00BA3FB7
:00000001FF
