:040000008A11FD2F35
:1009B80083120313081125088A116A278A118312E2
:1009C80003130815080083120313081100308A1155
:1009D80067258A1101308A1167258A11831203134A
:1009E8000815080083120313A30023088A11DE26C2
:1009F8008A118312031321088A11DE268A118312B1
:100A0800031322088A11DE268A11080083120313B1
:100A1800A001A1010130A0070318A10A0030A10715
:100A280000302102FF3003192002031C1C2D1D2D4C
:100A38000E2D08008312031388100811881108125C
:100A48008812081388138A110A258A118A110A251F
:100A58008A118A110A258A118A110A258A110330F6
:100A68008A1167258A1103308A1167258A11033094
:100A78008A1167258A1102308A1167258A11023086
:100A88008A1167258A1108308A1167258A11003072
:100A98008A1167258A110C308A1167258A1100305E
:100AA8008A1167258A1101308A1167258A11003059
:100AB8008A1167258A1106308A1167258A118312DF
:100AC80003130815080083120313A4002408A200C6
:100AD80003300310A20CFF3E031D6D2D22080139BF
:100AE800A300A30CA30C080823067F39230688005B
:100AF8002408A20002300310A20CFF3E031D7F2D24
:100B080022080139A300A30EA30DA30D080823068C
:100B1800BF39230688002408A2000310220C0139DB
:100B2800A300A30EA30D08082306DF3923068800B7
:100B380024080139A200A20E08082206EF3922066D
:100B480088008A110A258A118A110A258A118A11B0
:100B58000A258A118A110A258A118A110A258A11F9
:100B68008312031388158A110A258A118A110A2506
:100B78008A118A110A258A118A110A258A118A116D
:100B88000A258A118312031388118A110A258A11EA
:100B98008A110A258A118A110A258A118A110A25B9
:100BA8008A118A110A258A11080083120313071073
:100BB800871407158715071AE22DE32DE62D443013
:100BC800A000582E871AE92DEA2DED2D4330A000FC
:100BD800582E071BF02DF12DF42D4230A000582E71
:100BE800871BF72DF82DFB2D4130A000582E8710BC
:100BF800071AFF2D002E032E2330A000572E871A28
:100C0800062E072E0A2E3930A000572E071B0D2E50
:100C18000E2E112E3630A000572E871B142E152E9F
:100C2800182E3330A000572E0711071A1C2E1D2E20
:100C3800202E3030A000562E871A232E242E272E41
:100C48003830A000562E071B2A2E2B2E2E2E35307C
:100C5800A000562E871B312E322E352E3230A000A2
:100C6800562E8711071A392E3A2E3D2E2A30A0000B
:100C7800552E871A402E412E442E3730A000552E6F
:100C8800071B472E482E4B2E3430A000552E871BAD
:100C98004E2E4F2E532E3130A0000614552E2030E4
:100CA800A00087150715871420080800831603136A
:100CB8009F17C730831203139F051F083F39403819
:100CC8009F00831603131F08F0390E389F00831204
:100CD80003131F148316031388018601F03087005D
:100CE8008A111E258A118A11E7248A118A11D925A9
:100CF8008A1183120313AA008030A5000030A600D1
:100D08008A11DC248A11831203132A088A116A279C
:100D18008A1183120313A101A201FF308A11F6245C
:100D28008A118312031305101A3083120313A900C2
:100D38005E30A8006E30A700A70BA02EA80BA02E2F
:100D4800A90BA02E83120313A101FF30A2000030CB
:100D58008A11F6248A118312031305101A3083129C
:100D68000313A9005E30A8006E30A700A70BBA2EA7
:100D7800A80BBA2EA90BBA2EFF3083120313A100B9
:100D8800A20100308A11F6248A1183120313051078
:100D9800033083120313A9008A30A8005530A70036
:100DA800A70BD42EA80BD42EA90BD42E00007A2E74
:100DB8008A11002883120313A000A01FE42EE52E39
:100DC800EC2E051405140514051405100510F22E53
:100DD800051405140510051005100510201FF52E23
:100DE800F62EFD2E0514051405140514051005101E
:100DF800032F051405140510051005100510A01E75
:100E0800062F072F0E2F05140514051405140510B9
:100E18000510142F051405140510051005100510EC
:100E2800201E172F182F1F2F05140514051405143D
:100E380005100510252F05140514051005100510BB
:100E48000510A01D282F292F302F0514051405146F
:100E5800051405100510362F051405140510051086
:100E680005100510201D392F3A2F412F05140514A0
:100E78000514051405100510472F05140514051051
:100E8800051005100510A01C4A2F4B2F522F0514D2
:100E980005140514051405100510582F051405141C
:100EA8000510051005100510201C5B2F5C2F632F03
:100EB800051405140514051405100510692F0514EB
:100EC80005140510051005100510080083120313FA
:100ED800A4002408A20007300310A20CFF3E031D43
:100EE800702F22080139A300A30CA30C08082306BD
:100EF8007F39230688002408A20006300310A20CBC
:100F0800FF3E031D822F22080139A300A30EA30D63
:100F1800A30D08082306BF39230688002408A20069
:100F280005300310A20CFF3E031D952F220801393E
:100F3800A300A30EA30D08082306DF3923068800A3
:100F48002408A20004300310A20CFF3E031DA72FA3
:100F580022080139A300A30E08082306EF39230647
:100F68008800881588118A110A258A1183120313AB
:100F78002408A20003300310A20CFF3E031DBF2F5C
:100F880022080139A300A30CA30C080823067F3903
:100F9800230688002408A20002300310A20CFF3E9A
:100FA800031DD12F22080139A300A30EA30DA30D01
:100FB80008082306BF39230688002408A200031066
:100FC800220C0139A300A30EA30D08082306DF395C
:100FD8002306880024080139A200A20E0808220668
:100FE800EF3922068800881588118A110A258A1186
:080FF800080083018A115A2E42
:08400000FF3FFF3FFF3FFF3FC0
:02400E00BA3FB7
:00000001FF
