:040000008A11F12F41
:1006E600013483120313081125088A1107268A117B
:1006F6008312031308150800831203130811003030
:100706008A111D258A1101308A111D258A1183122D
:1007160003130815080083120313A001A101013079
:10072600A0070318A10A0030A10700302102FF30FC
:1007360003192002031CA02BA12B922B0800C73003
:10074600831203139F051F151F19AA2BAB2BA72B6B
:100756001E08A000A1012008C8002108C9004808F9
:10076600A100A0012008C8002108C9004808831676
:1007760003131E0483120313A0004908A1002008D6
:10078600C8002108C900080083120313A401A501AB
:10079600201CCE2BCF2BD52B2208A4070318A50A85
:1007A6002308A50701300310A20DA30DFF3E031D6C
:1007B600D62B01300310A10CA00CFF3E031DDD2B30
:1007C60020082104031DE82BE92BCB2B2508A100CB
:1007D6002408A0000800831203132008210403192B
:1007E600F52BF62B252CA501A50A042C01300310A8
:1007F600A00DA10DFF3E031DFA2B0130A400240815
:10080600A507A11F072C082CF92B21082302031D7D
:100816000E2C20082202031C112C122C182C200846
:10082600A2022108031CA303A30201300310A10C9A
:10083600A00CFF3E031D192C0130A502031D242C1C
:10084600252C082C2308A1002208A00008008312EA
:100856000313AB01AC01260827040319332C342CEF
:100866006B2CAD01AD0A422C01300310A60DA70D6D
:10087600FF3E031D382C0130AA002A08AD07A71F2A
:10088600452C462C372C01300310AB0DAC0DFF3E2A
:10089600031D472C27082902031D532C260828026E
:1008A600031C562C572C5E2C2608A8022708031C6E
:1008B600A903A9022B1401300310A70CA60CFF3EB6
:1008C600031D5F2C0130AD02031D6A2C6B2C462CD8
:1008D6002C08A7002B08A600080083120313881013
:1008E6000811881108128812081388138A118E239A
:1008F6008A118A118E238A118A118E238A118A11EE
:100906008E238A1103308A111D258A1103308A111C
:100916001D258A1103308A111D258A1102308A117C
:100926001D258A1102308A111D258A1108308A1167
:100936001D258A1100308A111D258A110C308A1155
:100946001D258A1100308A111D258A1101308A1150
:100956001D258A1100308A111D258A1106308A113B
:100966001D258A1183120313081508008312031329
:10097600B20012303202031CC12CC22CC62C320823
:10098600AF3EB200C92C32087F3EB2003208B0003A
:10099600B1013008A5003108A6008A1174238A1116
:1009A600643083120313A6000030A7002F08A900A5
:1009B6002E08A8008A112A248A11831203132608F6
:1009C600303E8A1107268A110A3083120313A600C5
:1009D6000030A7002F08A3002E08A2006430A00054
:1009E6000030A1008A11EE238A1183120313210815
:1009F600A9002008A8008A112A248A118312031349
:100A06002608303E8A1107268A110A3083120313FC
:100A1600A0000030A1002F08A3002E08A2008A1112
:100A2600EE238A11831203132008303E8A1107260B
:100A36008A11080083120313A4002408A2000330BD
:100A46000310A20CFF3E031D232D22080139A3002B
:100A5600A30CA30C080823067F3923068800240864
:100A6600A20002300310A20CFF3E031D352D220802
:100A76000139A300A30EA30DA30D08082306BF3951
:100A8600230688002408A2000310220C0139A300C3
:100A9600A30EA30D08082306DF39230688002408C1
:100AA6000139A200A20E08082206EF3922068800A4
:100AB6008A118E238A118A118E238A118A118E2316
:100AC6008A118A118E238A118A118E238A11831222
:100AD600031388158A118E238A118A118E238A118F
:100AE6008A118E238A118A118E238A118A118E23E6
:100AF6008A118312031388118A118E238A118A118F
:100B06008E238A118A118E238A118A118E238A11C5
:100B16008A118E238A110800031083120313220DF3
:100B2600230DA9002908031D992D9A2DA32D003008
:100B3600A3000030A2000030A1000030A000062E65
:100B46002008A4002108A5002208A6002308A70063
:100B56001F300310A70CA60CA50CA40CFF3E031D0A
:100B6600AC2D2408A800A217FF30A005FF30A10570
:100B7600FF30A2050030A3059630A902A91FC42D97
:100B8600C52DDF2D2908803A973E0318CB2DCC2D95
:100B9600CD2D9A2D01300310A30CA20CA10CA00C94
:100BA600FF3E031DCE2D0130A4002408A907031D16
:100BB600DD2DDE2DCD2DF62D20302902031CE42D52
:100BC600E52DF12D9A2D0130A4000310A00DA10DE5
:100BD600A20DA30DA40BE82D0130A9022908031DBF
:100BE600F52DF62DE62D28080319FA2DFB2D062ED8
:100BF600A009A109A209A309A00A0319A10A0319B8
:100C0600A20A0319A30A080083120313A4002408E6
:100C1600A20007300310A20CFF3E031D0D2E220872
:100C26000139A300A30CA30C080823067F39230669
:100C360088002408A20006300310A20CFF3E031D04
:100C46001F2E22080139A300A30EA30DA30D080829
:100C56002306BF39230688002408A20005300310A6
:100C6600A20CFF3E031D322E22080139A300A30E5B
:100C7600A30D08082306DF39230688002408A200EE
:100C860004300310A20CFF3E031D442E2208013936
:100C9600A300A30E08082306EF392306880088154B
:100CA60088118A118E238A11831203132408A20045
:100CB60003300310A20CFF3E031D5C2E22080139EF
:100CC600A300A30CA30C080823067F39230688007B
:100CD6002408A20002300310A20CFF3E031D6E2E54
:100CE60022080139A300A30EA30DA30D08082306AD
:100CF600BF39230688002408A2000310220C0139FC
:100D0600A300A30EA30D08082306DF3923068800D7
:100D160024080139A200A20E08082206EF3922068D
:100D26008800881588118A118E238A110800831677
:100D360003139F17C730831203139F051F083F39FC
:100D460040389F00831603131F08F0390E389F00A2
:100D5600831203131F1483160313880186018A1155
:100D660070248A118A117F238A118A11A2238A117B
:100D7600013083120313BC003C08CA074A08BC00B2
:100D8600BD013C08AE003D08AF0001308A11B92410
:100D96008A11831203134908AF004808AE001230C7
:100DA6008A11B9248A11053083120313A200003078
:100DB600A3004908A1004808A0008A11C7238A1188
:100DC600831203132108A9002008A800B630A60044
:100DD6000330A7008A112A248A11831203132708D5
:100DE600C1002608C0006430A2000030A3004108FC
:100DF600A1004008A0008A11C7238A118312031399
:100E06002008BC002108BD00BE01BF013F08B1009B
:100E16003E08B0003D08AF003C08AE0000308A1125
:100E260037278A11831203133108C5003008C4001E
:100E36002F08C3002E08C2004508A3004408A200DC
:100E46004308A1004208A0008A118F258A11831247
:100E560003132108AF002008AE0016308A11B9240A
:100E66008A11B82E8A11002883120313B600360899
:100E760003193E2F3F2F532FB11F422F432F532FBE
:100E86002E09B8002F09B9003009BA003109BB0094
:100E9600B80A0319B90A0319BA0A0319BB0A5B2F60
:100EA6003108BB003008BA002F08B9002E08B80078
:100EB600310830042F042E04031D622F632F6C2F7C
:100EC6000030B1000030B0000030AF000030AE009E
:100ED600F02F9630B7007C2F0130B2003208B707EA
:100EE60001300310BB0CBA0CB90CB80CFF3E031D45
:100EF600742FFE303B05031D812F822F6F2F9E2FEF
:100F06000130B2003208B7070130B80700300318C5
:100F16000130B907003003180130BA070030031852
:100F26000130BB0701300310BB0CBA0CB90CB80C6E
:100F3600FF3E031D962FFF303B05031DA32FA42F55
:100F4600832FB02F0130B7020130B2000310B80D65
:100F5600B90DBA0DBB0DB20BA92FBA1BB32FB42F07
:100F6600BA2F023037020318B92FBA2FA52F371818
:100F7600BD2FBE2FC62FFF30B805FF30B9057F3015
:100F8600BA05FF30BB050310B70C3708B200B30132
:100F9600B401B50118300310B20DB30DB40DB50D83
:100FA600FF3E031DCE2F3208B8043308B9043408B7
:100FB600BA043508BB0436080319E22FE32FE82FDD
:100FC600B11FE62FE72FE82FBB173B08B1003A0801
:100FD600B0003908AF003808AE0008008A11732344
:100FE6008A11CA00C201C301C401C501C601C701F5
:0A0FF600C801C90183018A119A2E77
:08400000FF3FFF3FFF3FFF3FC0
:02400E00BA3FB7
:00000001FF
