:040000008A11FD2F35
:100E78008316031387018801013083120313880046
:100E88003F3087001A3083120313A2005E30A1009E
:100E98006E30A000A00B4E2FA10B4E2FA20B4E2F91
:100EA8000230831203138800063087001A30831239
:100EB8000313A2005E30A1006E30A000A00B622FC9
:100EC800A10B622FA20B622F043083120313880038
:100ED8005B3087001A3083120313A2005E30A10032
:100EE8006E30A000A00B762FA10B762FA20B762FC9
:100EF8004F308312031387001A3083120313A200A2
:100F08005E30A1006E30A000A00B882FA10B882FA7
:100F1800A20B882F66308312031387001A308312BE
:100F28000313A2005E30A1006E30A000A00B9A2F20
:100F3800A10B9A2FA20B9A2F6D30831203138700EF
:100F48001A3083120313A2005E30A1006E30A00095
:100F5800A00BAC2FA10BAC2FA20BAC2F7D308312B2
:100F6800031387001A3083120313A2005E30A10016
:100F78006E30A000A00BBE2FA10BBE2FA20BBE2F60
:100F880007308312031387001A3083120313A20059
:100F98005E30A1006E30A000A00BD02FA10BD02F87
:100FA800A20BD02F7F308312031387001A308312CD
:100FB8000313A2005E30A1006E30A000A00BE22F48
:100FC800A10BE22FA20BE22F6F30831203138700CD
:100FD8001A3083120313A2005E30A1006E30A00005
:100FE800A00BF42FA10BF42FA20BF42F402F8A1182
:080FF800002883018A113C2F3F
:08400000FF3FFF3FFF3FFF3FC0
:02400E003A3F37
:00000001FF
