:040000008A11F12F41
:100C6E007E088A007F0882008A1137268A1180004A
:100C7E00840A04087D0603190034FF0A0319FE0ACC
:100C8E003B2E3F340034063400345B3400344F3492
:100C9E000034663400346D3400347D34003407344F
:100CAE0000347F3400346F340034263084004630F4
:100CBE0083120313A2000408A3001430A400220818
:100CCE00840083130008A500A20A230884002508C7
:100CDE008000A30AA40B662E2008A2002207263E3F
:100CEE00840000088700213083120313A30076309E
:100CFE00A200A20B802EA30B802E080083120313DA
:100D0E00A601A31F8B2E8C2E932EA209A309A20A35
:100D1E000319A30AA601A60AA11F962E972E9C2E92
:100D2E00A009A109A00A0319A10A20082104031988
:100D3E00A12EA22ED12EA501A50AB02E0130031090
:100D4E00A00DA10DFF3E031DA62E0130A400240808
:100D5E00A507A11FB32EB42EA52E21082302031D15
:100D6E00BA2E20082202031CBD2EBE2EC42E200831
:100D7E00A2022108031CA303A30201300310A10C3D
:100D8E00A00CFF3E031DC52E0130A502031DD02E63
:100D9E00D12EB42E26080319D52ED62EDB2EA2095F
:100DAE00A309A20A0319A30A2308A1002208A0007E
:100DBE00080083120313AD01A81FE62EE72EEE2EB8
:100DCE00A709A809A70A0319A80AAD01AD0AAA1F07
:100DDE00F12EF22EFB2EA909AA09A90A0319AA0AB5
:100DEE000130AB002B08AD06AE01AF012708280479
:100DFE000319022F032F3A2FAC01AC0A112F013029
:100E0E000310A70DA80DFF3E031D072F0130AB00E9
:100E1E002B08AC07A81F142F152F062F0130031017
:100E2E00AE0DAF0DFF3E031D162F28082A02031D1F
:100E3E00222F27082902031C252F262F2D2F2708A6
:100E4E00A9022808031CAA03AA022E1401300310BB
:100E5E00A80CA70CFF3E031D2E2F0130AC02031D64
:100E6E00392F3A2F152F2D0803193E2F3F2F442FC0
:100E7E00AE09AF09AE0A0319AF0A2F08A8002E0853
:100E8E00A70008008316031387018801831203133A
:100E9E00C401C5016430A7000030A8004508AA00AF
:100EAE004408A9008A11E0268A1183120313280828
:100EBE00BB002708BA000A30A7000030A80045087A
:100ECE00A3004408A2006430A0000030A1008A11E3
:100EDE0085268A11831203132108AA002008A9006F
:100EEE008A11E0268A11831203132808BD002708F1
:100EFE00BC000A30A0000030A1004508A300440841
:100F0E00A2008A1185268A11831203132108BF00BD
:100F1E002008BE00013088003B08A1003A08A0005E
:100F2E008A115C268A1102308312031388003D0851
:100F3E00A1003C08A0008A115C268A11043083129D
:100F4E00031388003F08A1003E08A0008A115C260A
:100F5E008A11013083120313C007003003180130C9
:100F6E00C107003003180130C207003003180130EA
:100F7E00C3074308031DD12F4208031DD12F41087B
:100F8E00031DD12F71304002031DCD2F031CD02F16
:100F9E00D12FE12F013083120313C4070318C50AA2
:100FAE000030C5070030C3000030C2000030C10061
:100FBE000030C000E73083120313440603300319D8
:100FCE004506031DEB2FEC2F512FC401C501512FE8
:100FDE008A11002883135A30FD000630FE00483077
:100FEE00FF00463084008A113B268A1183018A1144
:020FFE00492F79
:08400000FF3FFF3FFF3FFF3FC0
:02400E003A3F37
:00000001FF
